{
  "address": "0xa471aD08780d0B9ABE7CD03ec0dB14B7DAdBa682",
  "abi": [
    {
      "inputs": [
        {
          "internalType": "address",
          "name": "vrfCoordinatorV2",
          "type": "address"
        },
        {
          "internalType": "uint64",
          "name": "subscriptionId",
          "type": "uint64"
        },
        {
          "internalType": "bytes32",
          "name": "gasLane",
          "type": "bytes32"
        },
        {
          "internalType": "uint32",
          "name": "callbackGasLimit",
          "type": "uint32"
        },
        {
          "internalType": "string[3]",
          "name": "dogTokenUris",
          "type": "string[3]"
        },
        {
          "internalType": "uint256",
          "name": "mintFee",
          "type": "uint256"
        }
      ],
      "stateMutability": "nonpayable",
      "type": "constructor"
    },
    {
      "inputs": [
        {
          "internalType": "address",
          "name": "have",
          "type": "address"
        },
        {
          "internalType": "address",
          "name": "want",
          "type": "address"
        }
      ],
      "name": "OnlyCoordinatorCanFulfill",
      "type": "error"
    },
    {
      "inputs": [],
      "name": "RandomIpfsNfts__NeedMoreETHSent",
      "type": "error"
    },
    {
      "inputs": [],
      "name": "RandomIpfsNfts__RangeOutOfBounds",
      "type": "error"
    },
    {
      "inputs": [],
      "name": "RandomIpfsNfts__TransferFailed",
      "type": "error"
    },
    {
      "anonymous": false,
      "inputs": [
        {
          "indexed": true,
          "internalType": "address",
          "name": "owner",
          "type": "address"
        },
        {
          "indexed": true,
          "internalType": "address",
          "name": "approved",
          "type": "address"
        },
        {
          "indexed": true,
          "internalType": "uint256",
          "name": "tokenId",
          "type": "uint256"
        }
      ],
      "name": "Approval",
      "type": "event"
    },
    {
      "anonymous": false,
      "inputs": [
        {
          "indexed": true,
          "internalType": "address",
          "name": "owner",
          "type": "address"
        },
        {
          "indexed": true,
          "internalType": "address",
          "name": "operator",
          "type": "address"
        },
        {
          "indexed": false,
          "internalType": "bool",
          "name": "approved",
          "type": "bool"
        }
      ],
      "name": "ApprovalForAll",
      "type": "event"
    },
    {
      "anonymous": false,
      "inputs": [
        {
          "indexed": false,
          "internalType": "enum RandomIpfsNft.Breed",
          "name": "dogBreed",
          "type": "uint8"
        },
        {
          "indexed": false,
          "internalType": "address",
          "name": "minter",
          "type": "address"
        }
      ],
      "name": "NftMinted",
      "type": "event"
    },
    {
      "anonymous": false,
      "inputs": [
        {
          "indexed": true,
          "internalType": "uint256",
          "name": "requestId",
          "type": "uint256"
        },
        {
          "indexed": false,
          "internalType": "address",
          "name": "requester",
          "type": "address"
        }
      ],
      "name": "NftRequested",
      "type": "event"
    },
    {
      "anonymous": false,
      "inputs": [
        {
          "indexed": true,
          "internalType": "address",
          "name": "previousOwner",
          "type": "address"
        },
        {
          "indexed": true,
          "internalType": "address",
          "name": "newOwner",
          "type": "address"
        }
      ],
      "name": "OwnershipTransferred",
      "type": "event"
    },
    {
      "anonymous": false,
      "inputs": [
        {
          "indexed": true,
          "internalType": "address",
          "name": "from",
          "type": "address"
        },
        {
          "indexed": true,
          "internalType": "address",
          "name": "to",
          "type": "address"
        },
        {
          "indexed": true,
          "internalType": "uint256",
          "name": "tokenId",
          "type": "uint256"
        }
      ],
      "name": "Transfer",
      "type": "event"
    },
    {
      "inputs": [
        {
          "internalType": "address",
          "name": "to",
          "type": "address"
        },
        {
          "internalType": "uint256",
          "name": "tokenId",
          "type": "uint256"
        }
      ],
      "name": "approve",
      "outputs": [],
      "stateMutability": "nonpayable",
      "type": "function"
    },
    {
      "inputs": [
        {
          "internalType": "address",
          "name": "owner",
          "type": "address"
        }
      ],
      "name": "balanceOf",
      "outputs": [
        {
          "internalType": "uint256",
          "name": "",
          "type": "uint256"
        }
      ],
      "stateMutability": "view",
      "type": "function"
    },
    {
      "inputs": [
        {
          "internalType": "uint256",
          "name": "tokenId",
          "type": "uint256"
        }
      ],
      "name": "getApproved",
      "outputs": [
        {
          "internalType": "address",
          "name": "",
          "type": "address"
        }
      ],
      "stateMutability": "view",
      "type": "function"
    },
    {
      "inputs": [
        {
          "internalType": "uint256",
          "name": "moddedRng",
          "type": "uint256"
        }
      ],
      "name": "getBreedFromModdedRng",
      "outputs": [
        {
          "internalType": "enum RandomIpfsNft.Breed",
          "name": "",
          "type": "uint8"
        }
      ],
      "stateMutability": "pure",
      "type": "function"
    },
    {
      "inputs": [],
      "name": "getChanceArray",
      "outputs": [
        {
          "internalType": "uint256[3]",
          "name": "",
          "type": "uint256[3]"
        }
      ],
      "stateMutability": "pure",
      "type": "function"
    },
    {
      "inputs": [
        {
          "internalType": "uint256",
          "name": "index",
          "type": "uint256"
        }
      ],
      "name": "getDogTokenUris",
      "outputs": [
        {
          "internalType": "string",
          "name": "",
          "type": "string"
        }
      ],
      "stateMutability": "view",
      "type": "function"
    },
    {
      "inputs": [],
      "name": "getMintFee",
      "outputs": [
        {
          "internalType": "uint256",
          "name": "",
          "type": "uint256"
        }
      ],
      "stateMutability": "view",
      "type": "function"
    },
    {
      "inputs": [],
      "name": "getTokenCounter",
      "outputs": [
        {
          "internalType": "uint256",
          "name": "",
          "type": "uint256"
        }
      ],
      "stateMutability": "view",
      "type": "function"
    },
    {
      "inputs": [
        {
          "internalType": "address",
          "name": "owner",
          "type": "address"
        },
        {
          "internalType": "address",
          "name": "operator",
          "type": "address"
        }
      ],
      "name": "isApprovedForAll",
      "outputs": [
        {
          "internalType": "bool",
          "name": "",
          "type": "bool"
        }
      ],
      "stateMutability": "view",
      "type": "function"
    },
    {
      "inputs": [],
      "name": "name",
      "outputs": [
        {
          "internalType": "string",
          "name": "",
          "type": "string"
        }
      ],
      "stateMutability": "view",
      "type": "function"
    },
    {
      "inputs": [],
      "name": "owner",
      "outputs": [
        {
          "internalType": "address",
          "name": "",
          "type": "address"
        }
      ],
      "stateMutability": "view",
      "type": "function"
    },
    {
      "inputs": [
        {
          "internalType": "uint256",
          "name": "tokenId",
          "type": "uint256"
        }
      ],
      "name": "ownerOf",
      "outputs": [
        {
          "internalType": "address",
          "name": "",
          "type": "address"
        }
      ],
      "stateMutability": "view",
      "type": "function"
    },
    {
      "inputs": [
        {
          "internalType": "uint256",
          "name": "requestId",
          "type": "uint256"
        },
        {
          "internalType": "uint256[]",
          "name": "randomWords",
          "type": "uint256[]"
        }
      ],
      "name": "rawFulfillRandomWords",
      "outputs": [],
      "stateMutability": "nonpayable",
      "type": "function"
    },
    {
      "inputs": [],
      "name": "renounceOwnership",
      "outputs": [],
      "stateMutability": "nonpayable",
      "type": "function"
    },
    {
      "inputs": [],
      "name": "requestNFT",
      "outputs": [
        {
          "internalType": "uint256",
          "name": "requestId",
          "type": "uint256"
        }
      ],
      "stateMutability": "payable",
      "type": "function"
    },
    {
      "inputs": [
        {
          "internalType": "uint256",
          "name": "",
          "type": "uint256"
        }
      ],
      "name": "s_requestIdToSender",
      "outputs": [
        {
          "internalType": "address",
          "name": "",
          "type": "address"
        }
      ],
      "stateMutability": "view",
      "type": "function"
    },
    {
      "inputs": [],
      "name": "s_tokenCounter",
      "outputs": [
        {
          "internalType": "uint256",
          "name": "",
          "type": "uint256"
        }
      ],
      "stateMutability": "view",
      "type": "function"
    },
    {
      "inputs": [
        {
          "internalType": "address",
          "name": "from",
          "type": "address"
        },
        {
          "internalType": "address",
          "name": "to",
          "type": "address"
        },
        {
          "internalType": "uint256",
          "name": "tokenId",
          "type": "uint256"
        }
      ],
      "name": "safeTransferFrom",
      "outputs": [],
      "stateMutability": "nonpayable",
      "type": "function"
    },
    {
      "inputs": [
        {
          "internalType": "address",
          "name": "from",
          "type": "address"
        },
        {
          "internalType": "address",
          "name": "to",
          "type": "address"
        },
        {
          "internalType": "uint256",
          "name": "tokenId",
          "type": "uint256"
        },
        {
          "internalType": "bytes",
          "name": "_data",
          "type": "bytes"
        }
      ],
      "name": "safeTransferFrom",
      "outputs": [],
      "stateMutability": "nonpayable",
      "type": "function"
    },
    {
      "inputs": [
        {
          "internalType": "address",
          "name": "operator",
          "type": "address"
        },
        {
          "internalType": "bool",
          "name": "approved",
          "type": "bool"
        }
      ],
      "name": "setApprovalForAll",
      "outputs": [],
      "stateMutability": "nonpayable",
      "type": "function"
    },
    {
      "inputs": [
        {
          "internalType": "bytes4",
          "name": "interfaceId",
          "type": "bytes4"
        }
      ],
      "name": "supportsInterface",
      "outputs": [
        {
          "internalType": "bool",
          "name": "",
          "type": "bool"
        }
      ],
      "stateMutability": "view",
      "type": "function"
    },
    {
      "inputs": [],
      "name": "symbol",
      "outputs": [
        {
          "internalType": "string",
          "name": "",
          "type": "string"
        }
      ],
      "stateMutability": "view",
      "type": "function"
    },
    {
      "inputs": [
        {
          "internalType": "uint256",
          "name": "tokenId",
          "type": "uint256"
        }
      ],
      "name": "tokenURI",
      "outputs": [
        {
          "internalType": "string",
          "name": "",
          "type": "string"
        }
      ],
      "stateMutability": "view",
      "type": "function"
    },
    {
      "inputs": [
        {
          "internalType": "address",
          "name": "from",
          "type": "address"
        },
        {
          "internalType": "address",
          "name": "to",
          "type": "address"
        },
        {
          "internalType": "uint256",
          "name": "tokenId",
          "type": "uint256"
        }
      ],
      "name": "transferFrom",
      "outputs": [],
      "stateMutability": "nonpayable",
      "type": "function"
    },
    {
      "inputs": [
        {
          "internalType": "address",
          "name": "newOwner",
          "type": "address"
        }
      ],
      "name": "transferOwnership",
      "outputs": [],
      "stateMutability": "nonpayable",
      "type": "function"
    },
    {
      "inputs": [],
      "name": "withdraw",
      "outputs": [],
      "stateMutability": "nonpayable",
      "type": "function"
    }
  ],
  "transactionHash": "0x7846775debdd936f0eb19f3976b481620a832db8eaa39622a70115b459c877e1",
  "args": [
    "0x6168499c0cFfCaCD319c818142124B7A15E857ab",
    "5998",
    "0xd89b2bf150e3b9e13446986e571fb9cab24b13cea0a43ea20a6049a85cc807cc",
    "500000",
    [
      "ipfs://QmaVkBn2tKmjbhphU7eyztbvSQU5EXDdqRyXZtRhSGgJGo",
      "ipfs://QmYQC5aGZu2PTH8XzbJrbDnvhj3gVs7ya33H9mqUNvST3d",
      "ipfs://QmZYmH5iDbD6v3U2ixoVAjioSzvWJszDzYdbeCLquGSpVm"
    ],
    "10000000000000000"
  ],
  "numDeployments": 1,
  "solcInputHash": "fc4569273f141cec60bcc5e10aa672c7",
  "bytecode": "0x6101406040523480156200001257600080fd5b506040516200470638038062004706833981810160405281019062000038919062000806565b856040518060400160405280600f81526020017f52616e646f6d2049504653204e465400000000000000000000000000000000008152506040518060400160405280600381526020017f52494e00000000000000000000000000000000000000000000000000000000008152508160009080519060200190620000bd929190620002a6565b508060019080519060200190620000d6929190620002a6565b5050508073ffffffffffffffffffffffffffffffffffffffff1660808173ffffffffffffffffffffffffffffffffffffffff1660601b81525050506200013162000125620001d860201b60201c565b620001e060201b60201c565b8573ffffffffffffffffffffffffffffffffffffffff1660a08173ffffffffffffffffffffffffffffffffffffffff1660601b815250508467ffffffffffffffff1660c08167ffffffffffffffff1660c01b815250508360e081815250508263ffffffff166101008163ffffffff1660e01b81525050600060098190555081600a906003620001c292919062000337565b5080610120818152505050505050505062000926565b600033905090565b6000600760009054906101000a900473ffffffffffffffffffffffffffffffffffffffff16905081600760006101000a81548173ffffffffffffffffffffffffffffffffffffffff021916908373ffffffffffffffffffffffffffffffffffffffff1602179055508173ffffffffffffffffffffffffffffffffffffffff168173ffffffffffffffffffffffffffffffffffffffff167f8be0079c531659141344cd1fd0a4f28419497f9722a3daafe3b4186f6b6457e060405160405180910390a35050565b828054620002b490620008f0565b90600052602060002090601f016020900481019282620002d8576000855562000324565b82601f10620002f357805160ff191683800117855562000324565b8280016001018555821562000324579182015b828111156200032357825182559160200191906001019062000306565b5b50905062000333919062000391565b5090565b82600381019282156200037e579160200282015b828111156200037d5782518290805190602001906200036c929190620002a6565b50916020019190600101906200034b565b5b5090506200038d9190620003b0565b5090565b5b80821115620003ac57600081600090555060010162000392565b5090565b5b80821115620003d45760008181620003ca9190620003d8565b50600101620003b1565b5090565b508054620003e690620008f0565b6000825580601f10620003fa57506200041b565b601f0160209004906000526020600020908101906200041a919062000391565b5b50565b6000604051905090565b600080fd5b600080fd5b600073ffffffffffffffffffffffffffffffffffffffff82169050919050565b60006200045f8262000432565b9050919050565b620004718162000452565b81146200047d57600080fd5b50565b600081519050620004918162000466565b92915050565b600067ffffffffffffffff82169050919050565b620004b68162000497565b8114620004c257600080fd5b50565b600081519050620004d681620004ab565b92915050565b6000819050919050565b620004f181620004dc565b8114620004fd57600080fd5b50565b6000815190506200051181620004e6565b92915050565b600063ffffffff82169050919050565b620005328162000517565b81146200053e57600080fd5b50565b600081519050620005528162000527565b92915050565b600080fd5b6000601f19601f8301169050919050565b7f4e487b7100000000000000000000000000000000000000000000000000000000600052604160045260246000fd5b620005a8826200055d565b810181811067ffffffffffffffff82111715620005ca57620005c96200056e565b5b80604052505050565b6000620005df6200041e565b9050620005ed82826200059d565b919050565b600067ffffffffffffffff82111562000610576200060f6200056e565b5b602082029050919050565b600080fd5b600080fd5b600067ffffffffffffffff8211156200064357620006426200056e565b5b6200064e826200055d565b9050602081019050919050565b60005b838110156200067b5780820151818401526020810190506200065e565b838111156200068b576000848401525b50505050565b6000620006a8620006a28462000625565b620005d3565b905082815260208101848484011115620006c757620006c662000620565b5b620006d48482856200065b565b509392505050565b600082601f830112620006f457620006f362000558565b5b81516200070684826020860162000691565b91505092915050565b6000620007266200072084620005f2565b620005d3565b905080602084028301858111156200074357620007426200061b565b5b835b818110156200079157805167ffffffffffffffff8111156200076c576200076b62000558565b5b8086016200077b8982620006dc565b8552602085019450505060208101905062000745565b5050509392505050565b600082601f830112620007b357620007b262000558565b5b6003620007c28482856200070f565b91505092915050565b6000819050919050565b620007e081620007cb565b8114620007ec57600080fd5b50565b6000815190506200080081620007d5565b92915050565b60008060008060008060c0878903121562000826576200082562000428565b5b60006200083689828a0162000480565b96505060206200084989828a01620004c5565b95505060406200085c89828a0162000500565b94505060606200086f89828a0162000541565b935050608087015167ffffffffffffffff8111156200089357620008926200042d565b5b620008a189828a016200079b565b92505060a0620008b489828a01620007ef565b9150509295509295509295565b7f4e487b7100000000000000000000000000000000000000000000000000000000600052602260045260246000fd5b600060028204905060018216806200090957607f821691505b6020821081141562000920576200091f620008c1565b5b50919050565b60805160601c60a05160601c60c05160c01c60e0516101005160e01c61012051613d766200099060003960008181610e940152610ebc01526000610f9601526000610f5201526000610f7301526000610f1601526000818161095c01526109b00152613d766000f3fe6080604052600436106101815760003560e01c806370a08231116100d1578063a22cb4651161008a578063b88d4fde11610064578063b88d4fde14610577578063c87b56dd146105a0578063e985e9c5146105dd578063f2fde38b1461061a57610181565b8063a22cb465146104d4578063a36f573b146104fd578063a51cccf31461053a57610181565b806370a08231146103e1578063715018a61461041e5780637a5caab3146104355780637abd25d1146104605780638da5cb5b1461047e57806395d89b41146104a957610181565b806323b872dd1161013e57806342842e0e1161011857806342842e0e146103255780635dacf5f41461034e5780636352211e146103795780636e02007d146103b657610181565b806323b872dd146102a85780633af25975146102d15780633ccfd60b1461030e57610181565b806301ffc9a71461018657806306fdde03146101c3578063081812fc146101ee578063095ea7b31461022b5780630b21a83b146102545780631fe543e31461027f575b600080fd5b34801561019257600080fd5b506101ad60048036038101906101a891906126b6565b610643565b6040516101ba91906126fe565b60405180910390f35b3480156101cf57600080fd5b506101d8610725565b6040516101e591906127b2565b60405180910390f35b3480156101fa57600080fd5b506102156004803603810190610210919061280a565b6107b7565b6040516102229190612878565b60405180910390f35b34801561023757600080fd5b50610252600480360381019061024d91906128bf565b61083c565b005b34801561026057600080fd5b50610269610954565b604051610276919061290e565b60405180910390f35b34801561028b57600080fd5b506102a660048036038101906102a19190612a71565b61095a565b005b3480156102b457600080fd5b506102cf60048036038101906102ca9190612acd565b610a1a565b005b3480156102dd57600080fd5b506102f860048036038101906102f3919061280a565b610a7a565b60405161030591906127b2565b60405180910390f35b34801561031a57600080fd5b50610323610b21565b005b34801561033157600080fd5b5061034c60048036038101906103479190612acd565b610c49565b005b34801561035a57600080fd5b50610363610c69565b6040516103709190612bcb565b60405180910390f35b34801561038557600080fd5b506103a0600480360381019061039b919061280a565b610c94565b6040516103ad9190612878565b60405180910390f35b3480156103c257600080fd5b506103cb610d46565b6040516103d8919061290e565b60405180910390f35b3480156103ed57600080fd5b5061040860048036038101906104039190612be6565b610d50565b604051610415919061290e565b60405180910390f35b34801561042a57600080fd5b50610433610e08565b005b34801561044157600080fd5b5061044a610e90565b604051610457919061290e565b60405180910390f35b610468610eb8565b604051610475919061290e565b60405180910390f35b34801561048a57600080fd5b506104936110b8565b6040516104a09190612878565b60405180910390f35b3480156104b557600080fd5b506104be6110e2565b6040516104cb91906127b2565b60405180910390f35b3480156104e057600080fd5b506104fb60048036038101906104f69190612c3f565b611174565b005b34801561050957600080fd5b50610524600480360381019061051f919061280a565b61118a565b6040516105319190612878565b60405180910390f35b34801561054657600080fd5b50610561600480360381019061055c919061280a565b6111bd565b60405161056e9190612cf6565b60405180910390f35b34801561058357600080fd5b5061059e60048036038101906105999190612dc6565b61129f565b005b3480156105ac57600080fd5b506105c760048036038101906105c2919061280a565b611301565b6040516105d491906127b2565b60405180910390f35b3480156105e957600080fd5b5061060460048036038101906105ff9190612e49565b611453565b60405161061191906126fe565b60405180910390f35b34801561062657600080fd5b50610641600480360381019061063c9190612be6565b6114e7565b005b60007f80ac58cd000000000000000000000000000000000000000000000000000000007bffffffffffffffffffffffffffffffffffffffffffffffffffffffff1916827bffffffffffffffffffffffffffffffffffffffffffffffffffffffff1916148061070e57507f5b5e139f000000000000000000000000000000000000000000000000000000007bffffffffffffffffffffffffffffffffffffffffffffffffffffffff1916827bffffffffffffffffffffffffffffffffffffffffffffffffffffffff1916145b8061071e575061071d826115df565b5b9050919050565b60606000805461073490612eb8565b80601f016020809104026020016040519081016040528092919081815260200182805461076090612eb8565b80156107ad5780601f10610782576101008083540402835291602001916107ad565b820191906000526020600020905b81548152906001019060200180831161079057829003601f168201915b5050505050905090565b60006107c282611649565b610801576040517f08c379a00000000000000000000000000000000000000000000000000000000081526004016107f890612f5c565b60405180910390fd5b6004600083815260200190815260200160002060009054906101000a900473ffffffffffffffffffffffffffffffffffffffff169050919050565b600061084782610c94565b90508073ffffffffffffffffffffffffffffffffffffffff168373ffffffffffffffffffffffffffffffffffffffff1614156108b8576040517f08c379a00000000000000000000000000000000000000000000000000000000081526004016108af90612fee565b60405180910390fd5b8073ffffffffffffffffffffffffffffffffffffffff166108d76116b5565b73ffffffffffffffffffffffffffffffffffffffff1614806109065750610905816109006116b5565b611453565b5b610945576040517f08c379a000000000000000000000000000000000000000000000000000000000815260040161093c90613080565b60405180910390fd5b61094f83836116bd565b505050565b60095481565b7f000000000000000000000000000000000000000000000000000000000000000073ffffffffffffffffffffffffffffffffffffffff163373ffffffffffffffffffffffffffffffffffffffff1614610a0c57337f00000000000000000000000000000000000000000000000000000000000000006040517f1cf993f4000000000000000000000000000000000000000000000000000000008152600401610a039291906130a0565b60405180910390fd5b610a168282611776565b5050565b610a2b610a256116b5565b82611907565b610a6a576040517f08c379a0000000000000000000000000000000000000000000000000000000008152600401610a619061313b565b60405180910390fd5b610a758383836119e5565b505050565b6060600a8260038110610a9057610a8f61315b565b5b018054610a9c90612eb8565b80601f0160208091040260200160405190810160405280929190818152602001828054610ac890612eb8565b8015610b155780601f10610aea57610100808354040283529160200191610b15565b820191906000526020600020905b815481529060010190602001808311610af857829003601f168201915b50505050509050919050565b610b296116b5565b73ffffffffffffffffffffffffffffffffffffffff16610b476110b8565b73ffffffffffffffffffffffffffffffffffffffff1614610b9d576040517f08c379a0000000000000000000000000000000000000000000000000000000008152600401610b94906131d6565b60405180910390fd5b600047905060003373ffffffffffffffffffffffffffffffffffffffff1682604051610bc890613227565b60006040518083038185875af1925050503d8060008114610c05576040519150601f19603f3d011682016040523d82523d6000602084013e610c0a565b606091505b5050905080610c45576040517fca4cda3400000000000000000000000000000000000000000000000000000000815260040160405180910390fd5b5050565b610c648383836040518060200160405280600081525061129f565b505050565b610c71612585565b6040518060600160405280600a8152602001601e81526020016064815250905090565b6000806002600084815260200190815260200160002060009054906101000a900473ffffffffffffffffffffffffffffffffffffffff169050600073ffffffffffffffffffffffffffffffffffffffff168173ffffffffffffffffffffffffffffffffffffffff161415610d3d576040517f08c379a0000000000000000000000000000000000000000000000000000000008152600401610d34906132ae565b60405180910390fd5b80915050919050565b6000600954905090565b60008073ffffffffffffffffffffffffffffffffffffffff168273ffffffffffffffffffffffffffffffffffffffff161415610dc1576040517f08c379a0000000000000000000000000000000000000000000000000000000008152600401610db890613340565b60405180910390fd5b600360008373ffffffffffffffffffffffffffffffffffffffff1673ffffffffffffffffffffffffffffffffffffffff168152602001908152602001600020549050919050565b610e106116b5565b73ffffffffffffffffffffffffffffffffffffffff16610e2e6110b8565b73ffffffffffffffffffffffffffffffffffffffff1614610e84576040517f08c379a0000000000000000000000000000000000000000000000000000000008152600401610e7b906131d6565b60405180910390fd5b610e8e6000611c4c565b565b60007f0000000000000000000000000000000000000000000000000000000000000000905090565b60007f0000000000000000000000000000000000000000000000000000000000000000341015610f14576040517f59f3940500000000000000000000000000000000000000000000000000000000815260040160405180910390fd5b7f000000000000000000000000000000000000000000000000000000000000000073ffffffffffffffffffffffffffffffffffffffff16635d3b1d307f00000000000000000000000000000000000000000000000000000000000000007f000000000000000000000000000000000000000000000000000000000000000060037f000000000000000000000000000000000000000000000000000000000000000060016040518663ffffffff1660e01b8152600401610fd79594939291906133d8565b602060405180830381600087803b158015610ff157600080fd5b505af1158015611005573d6000803e3d6000fd5b505050506040513d601f19601f820116820180604052508101906110299190613440565b9050336008600083815260200190815260200160002060006101000a81548173ffffffffffffffffffffffffffffffffffffffff021916908373ffffffffffffffffffffffffffffffffffffffff160217905550807ff873236e6cc0ecc5be1a9a35c95ee5b8d1ac4cc7bfef0cc5060391d6cc98e26b336040516110ad9190612878565b60405180910390a290565b6000600760009054906101000a900473ffffffffffffffffffffffffffffffffffffffff16905090565b6060600180546110f190612eb8565b80601f016020809104026020016040519081016040528092919081815260200182805461111d90612eb8565b801561116a5780601f1061113f5761010080835404028352916020019161116a565b820191906000526020600020905b81548152906001019060200180831161114d57829003601f168201915b5050505050905090565b61118661117f6116b5565b8383611d12565b5050565b60086020528060005260406000206000915054906101000a900473ffffffffffffffffffffffffffffffffffffffff1681565b6000806000905060006111ce610c69565b905060005b60038110156112675782851015801561120d57508181600381106111fa576111f961315b565b5b60200201518361120a919061349c565b85105b1561122f5780600281111561122557611224612c7f565b5b935050505061129a565b8181600381106112425761124161315b565b5b602002015183611252919061349c565b9250808061125f906134f2565b9150506111d3565b506040517f5cee8c9600000000000000000000000000000000000000000000000000000000815260040160405180910390fd5b919050565b6112b06112aa6116b5565b83611907565b6112ef576040517f08c379a00000000000000000000000000000000000000000000000000000000081526004016112e69061313b565b60405180910390fd5b6112fb84848484611e7f565b50505050565b606061130c82611649565b61134b576040517f08c379a0000000000000000000000000000000000000000000000000000000008152600401611342906135ad565b60405180910390fd5b600060066000848152602001908152602001600020805461136b90612eb8565b80601f016020809104026020016040519081016040528092919081815260200182805461139790612eb8565b80156113e45780601f106113b9576101008083540402835291602001916113e4565b820191906000526020600020905b8154815290600101906020018083116113c757829003601f168201915b5050505050905060006113f5611edb565b905060008151141561140b57819250505061144e565b600082511115611440578082604051602001611428929190613609565b6040516020818303038152906040529250505061144e565b61144984611ef2565b925050505b919050565b6000600560008473ffffffffffffffffffffffffffffffffffffffff1673ffffffffffffffffffffffffffffffffffffffff16815260200190815260200160002060008373ffffffffffffffffffffffffffffffffffffffff1673ffffffffffffffffffffffffffffffffffffffff16815260200190815260200160002060009054906101000a900460ff16905092915050565b6114ef6116b5565b73ffffffffffffffffffffffffffffffffffffffff1661150d6110b8565b73ffffffffffffffffffffffffffffffffffffffff1614611563576040517f08c379a000000000000000000000000000000000000000000000000000000000815260040161155a906131d6565b60405180910390fd5b600073ffffffffffffffffffffffffffffffffffffffff168173ffffffffffffffffffffffffffffffffffffffff1614156115d3576040517f08c379a00000000000000000000000000000000000000000000000000000000081526004016115ca9061369f565b60405180910390fd5b6115dc81611c4c565b50565b60007f01ffc9a7000000000000000000000000000000000000000000000000000000007bffffffffffffffffffffffffffffffffffffffffffffffffffffffff1916827bffffffffffffffffffffffffffffffffffffffffffffffffffffffff1916149050919050565b60008073ffffffffffffffffffffffffffffffffffffffff166002600084815260200190815260200160002060009054906101000a900473ffffffffffffffffffffffffffffffffffffffff1673ffffffffffffffffffffffffffffffffffffffff1614159050919050565b600033905090565b816004600083815260200190815260200160002060006101000a81548173ffffffffffffffffffffffffffffffffffffffff021916908373ffffffffffffffffffffffffffffffffffffffff160217905550808273ffffffffffffffffffffffffffffffffffffffff1661173083610c94565b73ffffffffffffffffffffffffffffffffffffffff167f8c5be1e5ebec7d5bd14f71427d1e84f3dd0314c0f7b2291e5b200ac8c7c3b92560405160405180910390a45050565b60006008600084815260200190815260200160002060009054906101000a900473ffffffffffffffffffffffffffffffffffffffff1690506000600954905060016009546117c4919061349c565b60098190555060006064846000815181106117e2576117e161315b565b5b60200260200101516117f491906136ee565b90506000611801826111bd565b905061180d8484611f99565b6118c683600a83600281111561182657611825612c7f565b5b600381106118375761183661315b565b5b01805461184390612eb8565b80601f016020809104026020016040519081016040528092919081815260200182805461186f90612eb8565b80156118bc5780601f10611891576101008083540402835291602001916118bc565b820191906000526020600020905b81548152906001019060200180831161189f57829003601f168201915b5050505050611fb7565b7f8a269f26b688e110e9cbd887d163dab35cae678fa353a0292de532c0cac1ecdc81856040516118f792919061371f565b60405180910390a1505050505050565b600061191282611649565b611951576040517f08c379a0000000000000000000000000000000000000000000000000000000008152600401611948906137ba565b60405180910390fd5b600061195c83610c94565b90508073ffffffffffffffffffffffffffffffffffffffff168473ffffffffffffffffffffffffffffffffffffffff16148061199e575061199d8185611453565b5b806119dc57508373ffffffffffffffffffffffffffffffffffffffff166119c4846107b7565b73ffffffffffffffffffffffffffffffffffffffff16145b91505092915050565b8273ffffffffffffffffffffffffffffffffffffffff16611a0582610c94565b73ffffffffffffffffffffffffffffffffffffffff1614611a5b576040517f08c379a0000000000000000000000000000000000000000000000000000000008152600401611a529061384c565b60405180910390fd5b600073ffffffffffffffffffffffffffffffffffffffff168273ffffffffffffffffffffffffffffffffffffffff161415611acb576040517f08c379a0000000000000000000000000000000000000000000000000000000008152600401611ac2906138de565b60405180910390fd5b611ad683838361202b565b611ae16000826116bd565b6001600360008573ffffffffffffffffffffffffffffffffffffffff1673ffffffffffffffffffffffffffffffffffffffff1681526020019081526020016000206000828254611b3191906138fe565b925050819055506001600360008473ffffffffffffffffffffffffffffffffffffffff1673ffffffffffffffffffffffffffffffffffffffff1681526020019081526020016000206000828254611b88919061349c565b92505081905550816002600083815260200190815260200160002060006101000a81548173ffffffffffffffffffffffffffffffffffffffff021916908373ffffffffffffffffffffffffffffffffffffffff160217905550808273ffffffffffffffffffffffffffffffffffffffff168473ffffffffffffffffffffffffffffffffffffffff167fddf252ad1be2c89b69c2b068fc378daa952ba7f163c4a11628f55a4df523b3ef60405160405180910390a4611c47838383612030565b505050565b6000600760009054906101000a900473ffffffffffffffffffffffffffffffffffffffff16905081600760006101000a81548173ffffffffffffffffffffffffffffffffffffffff021916908373ffffffffffffffffffffffffffffffffffffffff1602179055508173ffffffffffffffffffffffffffffffffffffffff168173ffffffffffffffffffffffffffffffffffffffff167f8be0079c531659141344cd1fd0a4f28419497f9722a3daafe3b4186f6b6457e060405160405180910390a35050565b8173ffffffffffffffffffffffffffffffffffffffff168373ffffffffffffffffffffffffffffffffffffffff161415611d81576040517f08c379a0000000000000000000000000000000000000000000000000000000008152600401611d789061397e565b60405180910390fd5b80600560008573ffffffffffffffffffffffffffffffffffffffff1673ffffffffffffffffffffffffffffffffffffffff16815260200190815260200160002060008473ffffffffffffffffffffffffffffffffffffffff1673ffffffffffffffffffffffffffffffffffffffff16815260200190815260200160002060006101000a81548160ff0219169083151502179055508173ffffffffffffffffffffffffffffffffffffffff168373ffffffffffffffffffffffffffffffffffffffff167f17307eab39ab6107e8899845ad3d59bd9653f200f220920489ca2b5937696c3183604051611e7291906126fe565b60405180910390a3505050565b611e8a8484846119e5565b611e9684848484612035565b611ed5576040517f08c379a0000000000000000000000000000000000000000000000000000000008152600401611ecc90613a10565b60405180910390fd5b50505050565b606060405180602001604052806000815250905090565b6060611efd82611649565b611f3c576040517f08c379a0000000000000000000000000000000000000000000000000000000008152600401611f3390613aa2565b60405180910390fd5b6000611f46611edb565b90506000815111611f665760405180602001604052806000815250611f91565b80611f70846121cc565b604051602001611f81929190613609565b6040516020818303038152906040525b915050919050565b611fb382826040518060200160405280600081525061232d565b5050565b611fc082611649565b611fff576040517f08c379a0000000000000000000000000000000000000000000000000000000008152600401611ff690613b34565b60405180910390fd5b806006600084815260200190815260200160002090805190602001906120269291906125a7565b505050565b505050565b505050565b60006120568473ffffffffffffffffffffffffffffffffffffffff16612388565b156121bf578373ffffffffffffffffffffffffffffffffffffffff1663150b7a0261207f6116b5565b8786866040518563ffffffff1660e01b81526004016120a19493929190613ba9565b602060405180830381600087803b1580156120bb57600080fd5b505af19250505080156120ec57506040513d601f19601f820116820180604052508101906120e99190613c0a565b60015b61216f573d806000811461211c576040519150601f19603f3d011682016040523d82523d6000602084013e612121565b606091505b50600081511415612167576040517f08c379a000000000000000000000000000000000000000000000000000000000815260040161215e90613a10565b60405180910390fd5b805181602001fd5b63150b7a0260e01b7bffffffffffffffffffffffffffffffffffffffffffffffffffffffff1916817bffffffffffffffffffffffffffffffffffffffffffffffffffffffff1916149150506121c4565b600190505b949350505050565b60606000821415612214576040518060400160405280600181526020017f30000000000000000000000000000000000000000000000000000000000000008152509050612328565b600082905060005b6000821461224657808061222f906134f2565b915050600a8261223f9190613c37565b915061221c565b60008167ffffffffffffffff8111156122625761226161292e565b5b6040519080825280601f01601f1916602001820160405280156122945781602001600182028036833780820191505090505b5090505b60008514612321576001826122ad91906138fe565b9150600a856122bc91906136ee565b60306122c8919061349c565b60f81b8183815181106122de576122dd61315b565b5b60200101907effffffffffffffffffffffffffffffffffffffffffffffffffffffffffffff1916908160001a905350600a8561231a9190613c37565b9450612298565b8093505050505b919050565b61233783836123ab565b6123446000848484612035565b612383576040517f08c379a000000000000000000000000000000000000000000000000000000000815260040161237a90613a10565b60405180910390fd5b505050565b6000808273ffffffffffffffffffffffffffffffffffffffff163b119050919050565b600073ffffffffffffffffffffffffffffffffffffffff168273ffffffffffffffffffffffffffffffffffffffff16141561241b576040517f08c379a000000000000000000000000000000000000000000000000000000000815260040161241290613cb4565b60405180910390fd5b61242481611649565b15612464576040517f08c379a000000000000000000000000000000000000000000000000000000000815260040161245b90613d20565b60405180910390fd5b6124706000838361202b565b6001600360008473ffffffffffffffffffffffffffffffffffffffff1673ffffffffffffffffffffffffffffffffffffffff16815260200190815260200160002060008282546124c0919061349c565b92505081905550816002600083815260200190815260200160002060006101000a81548173ffffffffffffffffffffffffffffffffffffffff021916908373ffffffffffffffffffffffffffffffffffffffff160217905550808273ffffffffffffffffffffffffffffffffffffffff16600073ffffffffffffffffffffffffffffffffffffffff167fddf252ad1be2c89b69c2b068fc378daa952ba7f163c4a11628f55a4df523b3ef60405160405180910390a461258160008383612030565b5050565b6040518060600160405280600390602082028036833780820191505090505090565b8280546125b390612eb8565b90600052602060002090601f0160209004810192826125d5576000855561261c565b82601f106125ee57805160ff191683800117855561261c565b8280016001018555821561261c579182015b8281111561261b578251825591602001919060010190612600565b5b509050612629919061262d565b5090565b5b8082111561264657600081600090555060010161262e565b5090565b6000604051905090565b600080fd5b600080fd5b60007fffffffff0000000000000000000000000000000000000000000000000000000082169050919050565b6126938161265e565b811461269e57600080fd5b50565b6000813590506126b08161268a565b92915050565b6000602082840312156126cc576126cb612654565b5b60006126da848285016126a1565b91505092915050565b60008115159050919050565b6126f8816126e3565b82525050565b600060208201905061271360008301846126ef565b92915050565b600081519050919050565b600082825260208201905092915050565b60005b83811015612753578082015181840152602081019050612738565b83811115612762576000848401525b50505050565b6000601f19601f8301169050919050565b600061278482612719565b61278e8185612724565b935061279e818560208601612735565b6127a781612768565b840191505092915050565b600060208201905081810360008301526127cc8184612779565b905092915050565b6000819050919050565b6127e7816127d4565b81146127f257600080fd5b50565b600081359050612804816127de565b92915050565b6000602082840312156128205761281f612654565b5b600061282e848285016127f5565b91505092915050565b600073ffffffffffffffffffffffffffffffffffffffff82169050919050565b600061286282612837565b9050919050565b61287281612857565b82525050565b600060208201905061288d6000830184612869565b92915050565b61289c81612857565b81146128a757600080fd5b50565b6000813590506128b981612893565b92915050565b600080604083850312156128d6576128d5612654565b5b60006128e4858286016128aa565b92505060206128f5858286016127f5565b9150509250929050565b612908816127d4565b82525050565b600060208201905061292360008301846128ff565b92915050565b600080fd5b7f4e487b7100000000000000000000000000000000000000000000000000000000600052604160045260246000fd5b61296682612768565b810181811067ffffffffffffffff821117156129855761298461292e565b5b80604052505050565b600061299861264a565b90506129a4828261295d565b919050565b600067ffffffffffffffff8211156129c4576129c361292e565b5b602082029050602081019050919050565b600080fd5b60006129ed6129e8846129a9565b61298e565b90508083825260208201905060208402830185811115612a1057612a0f6129d5565b5b835b81811015612a395780612a2588826127f5565b845260208401935050602081019050612a12565b5050509392505050565b600082601f830112612a5857612a57612929565b5b8135612a688482602086016129da565b91505092915050565b60008060408385031215612a8857612a87612654565b5b6000612a96858286016127f5565b925050602083013567ffffffffffffffff811115612ab757612ab6612659565b5b612ac385828601612a43565b9150509250929050565b600080600060608486031215612ae657612ae5612654565b5b6000612af4868287016128aa565b9350506020612b05868287016128aa565b9250506040612b16868287016127f5565b9150509250925092565b600060039050919050565b600081905092915050565b6000819050919050565b612b49816127d4565b82525050565b6000612b5b8383612b40565b60208301905092915050565b6000602082019050919050565b612b7d81612b20565b612b878184612b2b565b9250612b9282612b36565b8060005b83811015612bc3578151612baa8782612b4f565b9650612bb583612b67565b925050600181019050612b96565b505050505050565b6000606082019050612be06000830184612b74565b92915050565b600060208284031215612bfc57612bfb612654565b5b6000612c0a848285016128aa565b91505092915050565b612c1c816126e3565b8114612c2757600080fd5b50565b600081359050612c3981612c13565b92915050565b60008060408385031215612c5657612c55612654565b5b6000612c64858286016128aa565b9250506020612c7585828601612c2a565b9150509250929050565b7f4e487b7100000000000000000000000000000000000000000000000000000000600052602160045260246000fd5b60038110612cbf57612cbe612c7f565b5b50565b6000819050612cd082612cae565b919050565b6000612ce082612cc2565b9050919050565b612cf081612cd5565b82525050565b6000602082019050612d0b6000830184612ce7565b92915050565b600080fd5b600067ffffffffffffffff821115612d3157612d3061292e565b5b612d3a82612768565b9050602081019050919050565b82818337600083830152505050565b6000612d69612d6484612d16565b61298e565b905082815260208101848484011115612d8557612d84612d11565b5b612d90848285612d47565b509392505050565b600082601f830112612dad57612dac612929565b5b8135612dbd848260208601612d56565b91505092915050565b60008060008060808587031215612de057612ddf612654565b5b6000612dee878288016128aa565b9450506020612dff878288016128aa565b9350506040612e10878288016127f5565b925050606085013567ffffffffffffffff811115612e3157612e30612659565b5b612e3d87828801612d98565b91505092959194509250565b60008060408385031215612e6057612e5f612654565b5b6000612e6e858286016128aa565b9250506020612e7f858286016128aa565b9150509250929050565b7f4e487b7100000000000000000000000000000000000000000000000000000000600052602260045260246000fd5b60006002820490506001821680612ed057607f821691505b60208210811415612ee457612ee3612e89565b5b50919050565b7f4552433732313a20617070726f76656420717565727920666f72206e6f6e657860008201527f697374656e7420746f6b656e0000000000000000000000000000000000000000602082015250565b6000612f46602c83612724565b9150612f5182612eea565b604082019050919050565b60006020820190508181036000830152612f7581612f39565b9050919050565b7f4552433732313a20617070726f76616c20746f2063757272656e74206f776e6560008201527f7200000000000000000000000000000000000000000000000000000000000000602082015250565b6000612fd8602183612724565b9150612fe382612f7c565b604082019050919050565b6000602082019050818103600083015261300781612fcb565b9050919050565b7f4552433732313a20617070726f76652063616c6c6572206973206e6f74206f7760008201527f6e6572206e6f7220617070726f76656420666f7220616c6c0000000000000000602082015250565b600061306a603883612724565b91506130758261300e565b604082019050919050565b600060208201905081810360008301526130998161305d565b9050919050565b60006040820190506130b56000830185612869565b6130c26020830184612869565b9392505050565b7f4552433732313a207472616e736665722063616c6c6572206973206e6f74206f60008201527f776e6572206e6f7220617070726f766564000000000000000000000000000000602082015250565b6000613125603183612724565b9150613130826130c9565b604082019050919050565b6000602082019050818103600083015261315481613118565b9050919050565b7f4e487b7100000000000000000000000000000000000000000000000000000000600052603260045260246000fd5b7f4f776e61626c653a2063616c6c6572206973206e6f7420746865206f776e6572600082015250565b60006131c0602083612724565b91506131cb8261318a565b602082019050919050565b600060208201905081810360008301526131ef816131b3565b9050919050565b600081905092915050565b50565b60006132116000836131f6565b915061321c82613201565b600082019050919050565b600061323282613204565b9150819050919050565b7f4552433732313a206f776e657220717565727920666f72206e6f6e657869737460008201527f656e7420746f6b656e0000000000000000000000000000000000000000000000602082015250565b6000613298602983612724565b91506132a38261323c565b604082019050919050565b600060208201905081810360008301526132c78161328b565b9050919050565b7f4552433732313a2062616c616e636520717565727920666f7220746865207a6560008201527f726f206164647265737300000000000000000000000000000000000000000000602082015250565b600061332a602a83612724565b9150613335826132ce565b604082019050919050565b600060208201905081810360008301526133598161331d565b9050919050565b6000819050919050565b61337381613360565b82525050565b600067ffffffffffffffff82169050919050565b61339681613379565b82525050565b600061ffff82169050919050565b6133b38161339c565b82525050565b600063ffffffff82169050919050565b6133d2816133b9565b82525050565b600060a0820190506133ed600083018861336a565b6133fa602083018761338d565b61340760408301866133aa565b61341460608301856133c9565b61342160808301846133c9565b9695505050505050565b60008151905061343a816127de565b92915050565b60006020828403121561345657613455612654565b5b60006134648482850161342b565b91505092915050565b7f4e487b7100000000000000000000000000000000000000000000000000000000600052601160045260246000fd5b60006134a7826127d4565b91506134b2836127d4565b9250827fffffffffffffffffffffffffffffffffffffffffffffffffffffffffffffffff038211156134e7576134e661346d565b5b828201905092915050565b60006134fd826127d4565b91507fffffffffffffffffffffffffffffffffffffffffffffffffffffffffffffffff8214156135305761352f61346d565b5b600182019050919050565b7f45524337323155524953746f726167653a2055524920717565727920666f722060008201527f6e6f6e6578697374656e7420746f6b656e000000000000000000000000000000602082015250565b6000613597603183612724565b91506135a28261353b565b604082019050919050565b600060208201905081810360008301526135c68161358a565b9050919050565b600081905092915050565b60006135e382612719565b6135ed81856135cd565b93506135fd818560208601612735565b80840191505092915050565b600061361582856135d8565b915061362182846135d8565b91508190509392505050565b7f4f776e61626c653a206e6577206f776e657220697320746865207a65726f206160008201527f6464726573730000000000000000000000000000000000000000000000000000602082015250565b6000613689602683612724565b91506136948261362d565b604082019050919050565b600060208201905081810360008301526136b88161367c565b9050919050565b7f4e487b7100000000000000000000000000000000000000000000000000000000600052601260045260246000fd5b60006136f9826127d4565b9150613704836127d4565b925082613714576137136136bf565b5b828206905092915050565b60006040820190506137346000830185612ce7565b6137416020830184612869565b9392505050565b7f4552433732313a206f70657261746f7220717565727920666f72206e6f6e657860008201527f697374656e7420746f6b656e0000000000000000000000000000000000000000602082015250565b60006137a4602c83612724565b91506137af82613748565b604082019050919050565b600060208201905081810360008301526137d381613797565b9050919050565b7f4552433732313a207472616e736665722066726f6d20696e636f72726563742060008201527f6f776e6572000000000000000000000000000000000000000000000000000000602082015250565b6000613836602583612724565b9150613841826137da565b604082019050919050565b6000602082019050818103600083015261386581613829565b9050919050565b7f4552433732313a207472616e7366657220746f20746865207a65726f2061646460008201527f7265737300000000000000000000000000000000000000000000000000000000602082015250565b60006138c8602483612724565b91506138d38261386c565b604082019050919050565b600060208201905081810360008301526138f7816138bb565b9050919050565b6000613909826127d4565b9150613914836127d4565b9250828210156139275761392661346d565b5b828203905092915050565b7f4552433732313a20617070726f766520746f2063616c6c657200000000000000600082015250565b6000613968601983612724565b915061397382613932565b602082019050919050565b600060208201905081810360008301526139978161395b565b9050919050565b7f4552433732313a207472616e7366657220746f206e6f6e20455243373231526560008201527f63656976657220696d706c656d656e7465720000000000000000000000000000602082015250565b60006139fa603283612724565b9150613a058261399e565b604082019050919050565b60006020820190508181036000830152613a29816139ed565b9050919050565b7f4552433732314d657461646174613a2055524920717565727920666f72206e6f60008201527f6e6578697374656e7420746f6b656e0000000000000000000000000000000000602082015250565b6000613a8c602f83612724565b9150613a9782613a30565b604082019050919050565b60006020820190508181036000830152613abb81613a7f565b9050919050565b7f45524337323155524953746f726167653a2055524920736574206f66206e6f6e60008201527f6578697374656e7420746f6b656e000000000000000000000000000000000000602082015250565b6000613b1e602e83612724565b9150613b2982613ac2565b604082019050919050565b60006020820190508181036000830152613b4d81613b11565b9050919050565b600081519050919050565b600082825260208201905092915050565b6000613b7b82613b54565b613b858185613b5f565b9350613b95818560208601612735565b613b9e81612768565b840191505092915050565b6000608082019050613bbe6000830187612869565b613bcb6020830186612869565b613bd860408301856128ff565b8181036060830152613bea8184613b70565b905095945050505050565b600081519050613c048161268a565b92915050565b600060208284031215613c2057613c1f612654565b5b6000613c2e84828501613bf5565b91505092915050565b6000613c42826127d4565b9150613c4d836127d4565b925082613c5d57613c5c6136bf565b5b828204905092915050565b7f4552433732313a206d696e7420746f20746865207a65726f2061646472657373600082015250565b6000613c9e602083612724565b9150613ca982613c68565b602082019050919050565b60006020820190508181036000830152613ccd81613c91565b9050919050565b7f4552433732313a20746f6b656e20616c7265616479206d696e74656400000000600082015250565b6000613d0a601c83612724565b9150613d1582613cd4565b602082019050919050565b60006020820190508181036000830152613d3981613cfd565b905091905056fea2646970667358221220bce5ac1ee6b4718408271ef0324be703753a16f99c56888119193191b65b115564736f6c63430008080033",
  "devdoc": {
    "kind": "dev",
    "methods": {
      "approve(address,uint256)": {
        "details": "See {IERC721-approve}."
      },
      "balanceOf(address)": {
        "details": "See {IERC721-balanceOf}."
      },
      "constructor": {
        "details": " - We are going to use VRFrequestRandomWords() function from Chainlink VRF so we need to define each parameter that function uses in our contract constructor"
      },
      "getApproved(uint256)": {
        "details": "See {IERC721-getApproved}."
      },
      "getBreedFromModdedRng(uint256)": {
        "details": " - 0-10: st.bernard - 11-30: pug - 12 - 100: shiba  - Returns Breed - Revert if range is out of bounds"
      },
      "getChanceArray()": {
        "details": "Pure because only read state variables"
      },
      "isApprovedForAll(address,address)": {
        "details": "See {IERC721-isApprovedForAll}."
      },
      "name()": {
        "details": "See {IERC721Metadata-name}."
      },
      "owner()": {
        "details": "Returns the address of the current owner."
      },
      "ownerOf(uint256)": {
        "details": "See {IERC721-ownerOf}."
      },
      "renounceOwnership()": {
        "details": "Leaves the contract without owner. It will not be possible to call `onlyOwner` functions anymore. Can only be called by the current owner. NOTE: Renouncing ownership will leave the contract without an owner, thereby removing any functionality that is only available to the owner."
      },
      "requestNFT()": {
        "details": " - Should be payable - Should check that msg.value => mintFee - Emit event"
      },
      "safeTransferFrom(address,address,uint256)": {
        "details": "See {IERC721-safeTransferFrom}."
      },
      "safeTransferFrom(address,address,uint256,bytes)": {
        "details": "See {IERC721-safeTransferFrom}."
      },
      "setApprovalForAll(address,bool)": {
        "details": "See {IERC721-setApprovalForAll}."
      },
      "supportsInterface(bytes4)": {
        "details": "See {IERC165-supportsInterface}."
      },
      "symbol()": {
        "details": "See {IERC721Metadata-symbol}."
      },
      "tokenURI(uint256)": {
        "details": "See {IERC721Metadata-tokenURI}."
      },
      "transferFrom(address,address,uint256)": {
        "details": "See {IERC721-transferFrom}."
      },
      "transferOwnership(address)": {
        "details": "Transfers ownership of the contract to a new account (`newOwner`). Can only be called by the current owner."
      },
      "withdraw()": {
        "details": " - Only owner can withdraw funds - Check that transaction has succeffully completed - Revert if transaction failed"
      }
    },
    "version": 1
  },
  "userdoc": {
    "events": {
      "NftRequested(uint256,address)": {
        "notice": "Events"
      }
    },
    "kind": "user",
    "methods": {
      "getBreedFromModdedRng(uint256)": {
        "notice": "Function to decide puppy breed randomly"
      },
      "getChanceArray()": {
        "notice": "Function that assing the chances of each NFT"
      },
      "requestNFT()": {
        "notice": "Mint a random puppy (get random number) -> use Chainlink VRF -> call requestRandomWords() function"
      },
      "s_requestIdToSender(uint256)": {
        "notice": "VRF Helpers"
      },
      "withdraw()": {
        "notice": "Function to withdraw funds"
      }
    },
    "version": 1
  },
  "storageLayout": {
    "storage": [
      {
        "astId": 997,
        "contract": "contracts/RandomIpfsNft.sol:RandomIpfsNft",
        "label": "_name",
        "offset": 0,
        "slot": "0",
        "type": "t_string_storage"
      },
      {
        "astId": 999,
        "contract": "contracts/RandomIpfsNft.sol:RandomIpfsNft",
        "label": "_symbol",
        "offset": 0,
        "slot": "1",
        "type": "t_string_storage"
      },
      {
        "astId": 1003,
        "contract": "contracts/RandomIpfsNft.sol:RandomIpfsNft",
        "label": "_owners",
        "offset": 0,
        "slot": "2",
        "type": "t_mapping(t_uint256,t_address)"
      },
      {
        "astId": 1007,
        "contract": "contracts/RandomIpfsNft.sol:RandomIpfsNft",
        "label": "_balances",
        "offset": 0,
        "slot": "3",
        "type": "t_mapping(t_address,t_uint256)"
      },
      {
        "astId": 1011,
        "contract": "contracts/RandomIpfsNft.sol:RandomIpfsNft",
        "label": "_tokenApprovals",
        "offset": 0,
        "slot": "4",
        "type": "t_mapping(t_uint256,t_address)"
      },
      {
        "astId": 1017,
        "contract": "contracts/RandomIpfsNft.sol:RandomIpfsNft",
        "label": "_operatorApprovals",
        "offset": 0,
        "slot": "5",
        "type": "t_mapping(t_address,t_mapping(t_address,t_bool))"
      },
      {
        "astId": 1984,
        "contract": "contracts/RandomIpfsNft.sol:RandomIpfsNft",
        "label": "_tokenURIs",
        "offset": 0,
        "slot": "6",
        "type": "t_mapping(t_uint256,t_string_storage)"
      },
      {
        "astId": 874,
        "contract": "contracts/RandomIpfsNft.sol:RandomIpfsNft",
        "label": "_owner",
        "offset": 0,
        "slot": "7",
        "type": "t_address"
      },
      {
        "astId": 3155,
        "contract": "contracts/RandomIpfsNft.sol:RandomIpfsNft",
        "label": "s_requestIdToSender",
        "offset": 0,
        "slot": "8",
        "type": "t_mapping(t_uint256,t_address)"
      },
      {
        "astId": 3161,
        "contract": "contracts/RandomIpfsNft.sol:RandomIpfsNft",
        "label": "s_tokenCounter",
        "offset": 0,
        "slot": "9",
        "type": "t_uint256"
      },
      {
        "astId": 3165,
        "contract": "contracts/RandomIpfsNft.sol:RandomIpfsNft",
        "label": "s_dogTokenUris",
        "offset": 0,
        "slot": "10",
        "type": "t_array(t_string_storage)3_storage"
      }
    ],
    "types": {
      "t_address": {
        "encoding": "inplace",
        "label": "address",
        "numberOfBytes": "20"
      },
      "t_array(t_string_storage)3_storage": {
        "base": "t_string_storage",
        "encoding": "inplace",
        "label": "string[3]",
        "numberOfBytes": "96"
      },
      "t_bool": {
        "encoding": "inplace",
        "label": "bool",
        "numberOfBytes": "1"
      },
      "t_mapping(t_address,t_bool)": {
        "encoding": "mapping",
        "key": "t_address",
        "label": "mapping(address => bool)",
        "numberOfBytes": "32",
        "value": "t_bool"
      },
      "t_mapping(t_address,t_mapping(t_address,t_bool))": {
        "encoding": "mapping",
        "key": "t_address",
        "label": "mapping(address => mapping(address => bool))",
        "numberOfBytes": "32",
        "value": "t_mapping(t_address,t_bool)"
      },
      "t_mapping(t_address,t_uint256)": {
        "encoding": "mapping",
        "key": "t_address",
        "label": "mapping(address => uint256)",
        "numberOfBytes": "32",
        "value": "t_uint256"
      },
      "t_mapping(t_uint256,t_address)": {
        "encoding": "mapping",
        "key": "t_uint256",
        "label": "mapping(uint256 => address)",
        "numberOfBytes": "32",
        "value": "t_address"
      },
      "t_mapping(t_uint256,t_string_storage)": {
        "encoding": "mapping",
        "key": "t_uint256",
        "label": "mapping(uint256 => string)",
        "numberOfBytes": "32",
        "value": "t_string_storage"
      },
      "t_string_storage": {
        "encoding": "bytes",
        "label": "string",
        "numberOfBytes": "32"
      },
      "t_uint256": {
        "encoding": "inplace",
        "label": "uint256",
        "numberOfBytes": "32"
      }
    }
  }
}